:020000040000FA
:060000000A128A110C280F
:10000800FE00030EF1000A08F2000A128A114028C5
:100018000A128A110F2883010A128A115A28831694
:1000280003138601831603178901831603130F161A
:100038008F160F170F14CF3099009A0183160317E4
:1000480087158316031318151812831203139817AC
:10005800181683160313181398168312031318130C
:10006800831603130C168B170B178C1683120313A6
:100078000C128C12860108004230F000F00B422866
:100088000000831203138C1E4A284B284D281A0897
:1000980086000C1E50285128532861309900720898
:1000A8008A00710E8300FE0E7E0E09000A128A1164
:1000B80013200A128A115F280A128A110C280030AC
:0C00C8008A000408840A820700346134B6
:04400E00D438FF3F64
:00000001FF
