:020000040000FA
:100000000A128A11FA2FFF1B0D2883137F188317FA
:100010000008840A0319FF0A08007F087F398A0054
:0A0020000408840A0319FF0A820095
:100DC000F000831203130C1EE62EE72EE12E7008AE
:100DD000990008000A128A111E270A128A110A12A3
:100DE0008A1147270A128A11EF2E0A128A11002847
:100DF0007330F3007308F600032F77080A128A1184
:100E0000E0260A128A117208F4007108F300F10A50
:100E10000319F20A740883120313FF007308840095
:100E20000A128A1103200A128A11F5007508F700C8
:100E30007708031D1C2F1D2FFD2E0800831603139A
:100E400085018601831603178901831603130F1684
:100E50008F160F170F14CF3099009A0183160317BE
:100E60008715831603131815181283120313981786
:100E700018168316031318139816831203131813E6
:100E80008B170B170C128C12850186010800063097
:100E9000FA001330F900AD30F800F80B4D2FF90BC4
:100EA0004D2FFA0B4D2F542FAB30F1008830F2004C
:100EB0000A128A11F8260A128A110330FA008A30BF
:100EC000F9005530F800F80B632FF90B632FFA0B7C
:100ED000632F6A2F6430F1008830F2000A128A1101
:100EE000F8260A128A110330FA008A30F9005530C8
:100EF000F800F80B792FF90B792FFA0B792F802F47
:100F0000C930F1008830F2000A128A11F8260A125C
:100F10008A110330FA008A30F9005530F800F80BD6
:100F20008F2FF90B8F2FFA0B8F2F962FDD30F100BB
:100F30008830F2000A128A11F8260A128A118312E6
:100F400003138C1EA42FA52F9F2F31301A06031DCB
:100F5000AA2FAB2FC12F0630FA001330F900AD30A5
:100F6000F800F80BB12FF90BB12FFA0BB12FB82FF6
:100F70008930F1008830F2000A128A11F8260A122C
:100F80008A113230831203131A06031DC82FC92F8A
:100F9000DE2F0030F1008830F2000A128A11F826A4
:100FA0000A128A11831203138C1ED72FD82FD22F27
:100FB0001A08F8007808FC007C08850033301A060F
:100FC000031DE32FE42FF92F3230F1008830F200B7
:100FD0000A128A11F8260A128A11831203138C1E30
:100FE000F22FF32FED2F1A08F8007808FB007B088A
:100FF00086000800FB01FC0183010A128A11EA2E17
:101000000D342034503472346534733469346F34A1
:101010006E346534203465346C3420346334613488
:10102000723461346334743465347234203470340F
:101030006134723461342034643465347334703410
:101040006C346534673461347234203465346E3402
:10105000203450344F345234543441343A342034F0
:101060000D3400340D34203450347234653473340C
:1010700069346F346E346534203465346C34203414
:10108000633461347234613463347434653472347B
:101090002034703461347234613420346434653403
:1010A000733470346C346534673461347234203492
:1010B00065346E34203450344F3452345434423416
:1010C0003A3420340D340034283431342934203477
:1010D00044346534733470346C346534673461344B
:1010E0007234203463346134643465346E34613472
:1010F00020346434653420346334613472346134B0
:1011000063347434653472346534733420340D348C
:1011100000340D34203455347334743465346434FD
:1011200020347034753465346434653420346C3460
:101130006534653472342034653473347434653402
:1011400020346D3465346E34733461346A346534FC
:1011500020340D3400340D3420345134753465346A
:10116000203461346334633469346F346E34203432
:1011700064346534733465346134203465346A34DE
:1011800065346334753474346134723420340D340E
:1011900000342834323429342034433461346D34FB
:1011A0006234693461347234203450344F345234F0
:1011B0005434413420340D34003428343334293449
:1011C0002034433461346D346234693461347234B0
:1011D000203450344F3452345434423420340D349B
:0211E0000034D9
:04400E00D438FF3F64
:00000001FF
