:020000040000FA
:060000000A128A110E280D
:10000800FE00030EF2000408F3000A08F4000A12C6
:100018008A1146290A128A11112883133030FD00EB
:100028000130FE00EF30FF00203084000A128A11F0
:10003800E0210A128A11F501F601F70183010A127B
:100048008A11C72983120313B601B11F2C282D2842
:100058003428B009B109B00A0319B10AB601B60AC1
:10006800B31F372838284128B209B309B20A03193F
:10007800B30A0130B4003408B606B701B801300835
:1000880031040319482849288028B501B50A57289A
:1000980001300310B00DB10DFF3E031D4D28013096
:1000A800B4003408B507B11F5A285B284C28013022
:1000B8000310B70DB80DFF3E031D5C28310833024D
:1000C800031D682830083202031C6B286C2873282B
:1000D8003008B2023108031CB303B30237140130ED
:1000E8000310B10CB00CFF3E031D74280130B5029B
:1000F800031D7F2880285B28360803198428852853
:100108008A28B709B809B70A0319B80A3808B10024
:100118003708B000080083120313BC006430B00035
:100128000030B1003C08B900BA013908B2003A08F9
:10013800B3000A128A1126200A128A1183120313A5
:100148003008BB003B08F9006430B0000030B10053
:100158003C08B900BA013908B2003A08B3000A12DB
:100168008A11EB200A128A11831203133008BB008C
:100178003B08F8000A30B0000030B1007808B90038
:10018800BA013908B2003A08B3000A128A112620C7
:100198000A128A11831203133008BB003B08C000FF
:1001A8000A30B0000030B1007808B900BA01390847
:1001B800B2003A08B3000A128A11EB200A128A1117
:1001C800831203133008BB003B08BF0008008312EA
:1001D8000313B601B31FF128F228F928B209B309AD
:1001E800B20A0319B30AB601B60AB11FFC28FD28E2
:1001F8000229B009B109B00A0319B10A300831045B
:100208000319072908293729B501B50A1629013024
:100218000310B00DB10DFF3E031D0C290130B400D1
:100228003408B507B11F19291A290B2931083302D7
:10023800031D202930083202031C232924292A29D6
:100248003008B2023108031CB303B30201300310B3
:10025800B10CB00CFF3E031D2B290130B502031D64
:10026800362937291A29360803193B293C294129F7
:10027800B209B309B20A0319B30A3308B100320844
:10028800B00008000B1D49294A295A298312031373
:100298000808013E88000B110A128A11A3210A12CC
:1002A8008A11FF308312031381000B110B1C5D2987
:1002B8005E297029831203130618632964296929A2
:1002C8000130F100710887070B1086186C296D2919
:1002D8007029013087020B1074088A0073088400A3
:1002E800720E8300FE0E7E0E090083160317880126
:1002F8008901831603138501870188018901061482
:1003080086140F128F160F130F1481128111011406
:1003180081140115FF308312031381008316031320
:10032800161496140B108B178B158B160B11831242
:10033800031385018601870188018901080083125A
:1003480003138901F6017608031DAB29AC29B129ED
:100358000A128A110E220A128A117603031DB52980
:10036800B629BB290A128A11FF210A128A11023002
:100378007606031DC029C129C6290A128A111C2222
:100388000A128A1108000A128A1179210A128A119E
:10039800831203130708BD003D08BE003E080A1279
:1003A8008A118F200A128A11CC290A128A110E2862
:1003B8007E088A007F0882000A128A11DC210A124C
:1003C8008A118000840A04087D0603190034FF0A94
:1003D8000319FE0AE0293F3406345B344F3466348F
:1003E8006D347D3407347F346F3477347C3439345A
:1003F8005E34793471348312031309108914400868
:10040800203E84008313000885000230F000700845
:10041800F6000800831203130914091185017908ED
:10042800203E8400831300088500F601F60A0800C0
:1004380083120313891009153F08203E8400831393
:0804480000088500F601080020
:04400E00D430FF3F6C
:00000001FF
