:060000000A128A11142906
:100200008A010A140F3982073F3406345B344F34B5
:1002100066346D347D3407347F346F3477347C3406
:1002200039345E3479347134031783168801031727
:100230008316890103138316051485140517851782
:1002400003138316061086100611861103138316F6
:1002500008108810081188110812881208138813D2
:100260000313831609100313831285018601880185
:100270008901031383160F128F160F130F14031324
:100280008316811281110114811401150313831245
:1002900055210B1D49295521860A5521051C5A2136
:1002A000851C61210910682149290B1D86308100B8
:1002B0000B110800051C5A29F00A7008002188005B
:1002C0000800851C6129F0037008002188000800DF
:1002D0007008060203196D210800031383128901B7
:0602E0000914860108006C
:04400E00C430FF3F7C
:00000001FF
