:060000000A128A11182902
:10000800F200030EF30003138312061C850A861CF4
:0E00180085030B10730E8300F20E720E0900AA
:100200008A010A140F3982073F3406345B344F34B5
:1002100066346D347D3407347F346F3477347C3406
:0802200039345E347934713485
:100230000313831605108510051185110030870002
:100240000030880003178316880189010313831681
:1002500006148614031383168113031383161514CF
:100260009514151195111512951215139513031365
:100270008316811281110114811401150313831651
:100280000F128F160F130F140313831603309600EB
:100290008B178B150B1503138312850187018801BA
:0402A0008601512959
:04400E00D433FF3F69
:00000001FF
