:060000000A128A11182902
:10000800F200030EF300031383120B185B210B1984
:0C0018006521730E8300F20E720E0900C9
:100200008A010A140F3982073F3406345B344F34B5
:1002100066346D347D3407347F346F3477347C3406
:0802200039345E347934713485
:100230000313831605108510051185110030870002
:100240000030880003178316880189010313831681
:1002500006148614031383168113031383161514CF
:100260009514151195111512951215139513031365
:100270008316811281110114811401150313831651
:100280000F128F160F130F140313831603309600EB
:10029000031383120B108B178B158B160B11031383
:1002A0008312850186018701880161216821700818
:1002B000002188005529061C850A861C85030B1021
:1002C00008000508002187000800F40A6F210800D3
:1002D00032307402031D0800F00AF4010800FA30FD
:0602E00081000B11080073
:04400E00D433FF3F69
:00000001FF
