:060000000A128A11142906
:10000800F000030EF100031383120C1864210B197E
:1000180071218C185E21031383128C10710E8300DA
:06002800F00E700E09004D
:100200008A010A140F3982073F3406345B344F34B5
:1002100066346D347D3407347F346F3477347C3406
:1002200039345E3479347134031383160030870017
:10023000081088100910031383128B178B160B11EB
:100240000C100313831681128111011481140115FE
:1002500003138312901610169010101403138312B8
:100260004E309200031383168C140C140313831264
:100270008C100C10031383128901880187014A2115
:10028000781C5121781845213F2909100030F500CC
:10029000F600080077080F39F200770E0F39F300E7
:1002A000080072080021F50073080021F600091407
:1002B000080003138316643092000800781862293E
:1002C000781408007810080003138312E1308E00C0
:1002D0007C308F00F70A0C100800FE3081000B11F3
:1002E00008006D210810881074187A297508870095
:1002F00008147D297608870088140130F406080068
:04400E00D433FF3F69
:00000001FF
