:020000040000FA
:060000000A128A110E280D
:10000800FE00030EF7000408F8000A08F9000A12B7
:100018008A117D290A128A11112883133030FD00B4
:100028000230FE001430FF00203084000A128A11CA
:1000380005220A128A11BD01BE01BF01F001F101BA
:10004800F201F301F40183010A128A11AB29831228
:100058000313B601B11F312832283928B009B10974
:10006800B00A0319B10AB601B60AB31F3C283D28E5
:100078004628B209B309B20A0319B30A0130B40019
:100088003408B606B701B8013008310403194D2801
:100098004E288528B501B50A5C2801300310B00D3B
:1000A800B10DFF3E031D52280130B4003408B507D6
:1000B800B11F5F286028512801300310B70DB80D13
:1000C800FF3E031D612831083302031D6D283008E7
:1000D8003202031C7028712878283008B2023108CF
:1000E800031CB303B302371401300310B10CB00C76
:1000F800FF3E031D79280130B502031D8428852899
:1001080060283608031989288A288F28B709B8096A
:10011800B70A0319B80A3808B1003708B000080050
:10012800643083120313B0000030B1007408B900C2
:10013800BA013908B2003A08B3000A128A112B2012
:100148000A128A11831203133008BB003B08F3001C
:100158006430B0000030B1007408B900BA01390841
:10016800B2003A08B3000A128A11EF200A128A1163
:10017800831203133008BB003B08F0000A30B000BC
:100188000030B1007008B900BA013908B2003A0865
:10019800B3000A128A112B200A128A118312031340
:1001A8003008BB003B08F2000A30B0000030B10054
:1001B8007008B900BA013908B2003A08B3000A1247
:1001C8008A11EF200A128A11831203133008BB0028
:1001D8003B08BF00080083120313B601B31FF528BC
:1001E800F628FD28B209B309B20A0319B30AB60101
:1001F800B60AB11F002901290629B009B109B00AB8
:100208000319B10A3008310403190B290C293B29B9
:10021800B501B50A1A2901300310B00DB10DFF3E22
:10022800031D10290130B4003408B507B11F1D297A
:100238001E290F2931083302031D242930083202F0
:10024800031C272928292E293008B2023108031C4B
:10025800B303B30201300310B10CB00CFF3E031D11
:100268002F290130B502031D3A293B291E293608DA
:1002780003193F2940294529B209B309B20A0319CC
:10028800B30A3308B1003208B00008008316031718
:10029800081488148901831603130514851487012B
:1002A800880189010F128F160F130F148112811103
:1002B800011481140115FF30831203138100831682
:1002C80003130C17831203130C138B178B160B11C4
:1002D8000B171F179F171F14831603139F139F12C3
:1002E8001F12C330831203139F05870188018901F8
:1002F8000800831203130C1F8229832994291F0CD9
:10030800F600760C0F39003A031D8B298C298F29AA
:100318001E08870093291E08F6007608F4000C13BF
:100328000B1D97299829A2290A128A11D7210A1286
:100338008A11FF308312031381000B1179088A0098
:1003480078088400770E8300FE0E7E0E09000A12DC
:100358008A114A210A128A11831203139F148312E5
:1003680003139F18B829B929CE291F0CBC003C0CCF
:100378000F39013A031DC129C229C529C3309F0578
:10038800C9291F08C33904389F00CA2900008312ED
:1003980003139F140A128A1194200A128A11B3298E
:1003A8000A128A110E28F1017108031DDC29DD29C2
:1003B800E5298312031389010A128A1132220A12CB
:1003C8008A117103031DE929EA29F229831203130B
:1003D80089010A128A1124220A128A11023071062E
:1003E800031DF729F829002A8312031389010A1229
:1003F8008A113E220A128A1108007E088A007F08A4
:1004080082000A128A1101220A128A118000840AC3
:1004180004087D0603190034FF0A0319FE0A052A99
:100428003F3406345B344F3466346D347D340734DE
:100438007F346F3477347C3439345E3479347134B2
:100448007208203E84008313000883120313880077
:100458000230F5007508F1008914080083120313AF
:1004680009147308203E8400831300088800F101F2
:10047800F10A0800831203133F08203E8400831307
:0A04880000088800F10109150800C2
:04400E00D430FF3F6C
:00000001FF
