:060000000A128A11142906
:10000800F200030EF300031383120B1874210B196B
:0C0018009521730E8300F20E720E090099
:100200008A010A140F3982073F3406345B344F34B5
:1002100066346D347D3407347F346F3477347C3406
:1002200039345E34793471340313831685018701C0
:1002300088010317831688018901061486140613A2
:1002400086130313831609108910091103138316EB
:100250008113031383160330950003138316811251
:100260008111011481140115031383160F128F16C7
:100270000F130F1403138316033096000313831216
:100280000B108B178B158B160B1103138312850123
:100290008601870188018901031383127E2185214C
:1002A0000313831254214C29A4010508A6006430CD
:1002B00026020318A40A0318A6000318572961216F
:1002C0000800A3010A3026020318A30A0318A60097
:1002D000031862296C210800A5010130A602031849
:1002E000A50A031C08006D29061C850A861C8503C7
:1002F0000B100800FE3081000B11080005080F39B3
:10030000F400050E0F39F500080074080021F7000D
:1003100075080021F80024080021A000230800210E
:10032000A10025080021A20008007A2106138613E7
:100330000910891009117618A729F618AB29761922
:10034000AF29F619B329770887000617B729780867
:1003500087008617BA29200888000914BD292108BA
:1003600088008914C029220888000915C329013092
:10037000F60608000330F60608000630F606080008
:0A0380000C30F6060800F601080034
:04400E00D433FF3F69
:00000001FF
