:060000000A128A11182902
:10000800F000030EF100031383120B188C210B1957
:100018001220710E8300F00E700E0900882109105D
:10002800891086120613861320182428A018282859
:1000380020192C28A01930282308870009143428EF
:1000480024088700891437282508880086163A2846
:100058002608880006173D282708880086174028A4
:100068000130A00608000330A00608000630A006EC
:0C00780008000C30A0060800A0010800E1
:100200008A010A140F3982073F3406345B344F34B5
:1002100066346D347D3407347F346F3477347C3406
:0802200039345E347934713485
:10023000031783168801890103138316051085109F
:1002400005118511051285120513851303138316F5
:1002500006148614861206138613031383160710DA
:1002600087100711871107128712071387130313CB
:1002700083160810881008118811081288120813B4
:10028000881303138316091089100313831681132F
:100290000313831615149514151195111512951243
:1002A000151395139221031383160330960003133D
:1002B000831206080B100313831681128111011497
:1002C000811401158B178B158B160B1103138312D9
:1002D0008501860187018801890171217821992191
:1002E0006D2905080F39A100050E0F39A20008007D
:1002F00021080021A30022080021A40029080021D0
:10030000A5002A080021A6002B080021A70008004C
:10031000FD3081000B110800061C850A861C850330
:100320000B100800031383160F138F160F120F14F0
:100330000800A9010508A800643028020318A90ACA
:100340000318A80003189C29A6210800AA010A3056
:1003500028020318AA0A0318A8000318A729B12124
:100360000800AB010130A8020318AB0A031C080007
:02037000B229B0
:04400E00C433FF3F79
:00000001FF
