:060000000A128A1100291A
:1002000003178316880103178316890103138316C6
:10021000051485140515851505160517851703138F
:100220008316061086100611861103138316071015
:1002300087100711871103138316081088100811FF
:100240008811081203138312850103138312860198
:10025000031383128701031383128801031383128C
:100260008301051C3C21851C4621051D4121851D5E
:100270004B21051E502131295721051C3D29860A95
:1002800008005721051D4229870A08005721851CAF
:100290004729860308005721851D4C29870308003C
:1002A0005721051E51290608070788000800C83095
:1002B000F3005D21F30B59290800F930F200F20B2D
:0402C0005F290800AA
:04400E00C130FF3F7F
:00000001FF
