:060000000A128A1100291A
:1002000003178316880103178316890103138316C6
:10021000051485140515851505160517851703138F
:100220008316061086100611861103138316071015
:1002300087100711871103138316081088100811FF
:100240008811081203138312850103138312860198
:10025000031383128701031383128801051C3921BC
:10026000851C4E21051D4021851D5321051E47215A
:100270002E295821051C3A29860A061A86010800EB
:100280005821051D4129870A071A870108005821AE
:10029000051E482906080707880008005821851C04
:1002A0004F29860B08005821851D5429870B08000B
:1002B000C830F3005E21F30B5A290800F930F20030
:0602C000F20B60290800AA
:04400E00C130FF3F7F
:00000001FF
