:060000000A128A1100291A
:1002000003178316880103178316890103138316C6
:10021000051485140515851505160517851703138F
:100220008316061086100611861103138316071015
:1002300087100711871103138316081088100811FF
:100240008811081203138312850103138312860198
:10025000031383128701031383128801031383128C
:100260008301051C3C21851C4821051D4321851D5A
:100270004D21051E522131295921051C3D29860A8F
:10028000061A860108005921051D4429870A08001D
:100290005921851C4929860B08005921851D4E29A5
:1002A000870B08005921051E5329060807078800F7
:1002B0000800C830F3005F21F30B5B290800F93018
:0802C000F200F20B61290800B5
:04400E00C130FF3F7F
:00000001FF
