:060000000A128A1100291A
:1002000003178316880103178316890103138316C6
:10021000051485140515851505160517851703138F
:100220008316061086100611861103138316071015
:1002300087100711871103138316081088100811FF
:100240008811081203138312850103138312860198
:10025000031383128701031383128801051C3921BC
:10026000851C4C21051D3E21851D5121051E432164
:100270002E295621051C3A29860A08005621051DFB
:100280003F29870A08005621051E44290630F00040
:1002900007300707880008005621851C4D29860372
:1002A00008005621851D522987030800C830F30035
:1002B0005C21F30B58290800F930F200F20B5E299B
:0202C000080034
:04400E00C130FF3F7F
:00000001FF
