:060000000A128A1100291A
:1002000003178316880103178316890103138316C6
:10021000051485140515851505160517851703138F
:100220008316061086100611861103138316071015
:1002300087100711871103138316081088100811FF
:100240008811031383160910031383128501031306
:10025000831286010313831287010313831288011B
:10026000031383128901031383128301051C4121A7
:10027000851C4D21051D4821851D5221051E572134
:1002800036296421051C4229860A061A86010800BF
:100290006421051D4929870A08006421851C4E290F
:1002A000860308006421851D532987030800642103
:1002B000051E58290608070788005F210800031358
:1002C0008312031C09140800C830F3006A21F30BE1
:0E02D00066290800F930F200F20B6C290800D4
:04400E00C130FF3F7F
:00000001FF
