:020000040000FA
:060000000A128A110C280F
:10000800FE00030EF2000A08F3000A128A111328F0
:100018000A128A110F2883010A128A11BE28831234
:1000280003130C1F182819286C281F0CF000700CDB
:100038000F39003A031D2128222847281E08F000FE
:100048000310700C7C3E95001E080139F000F00E7C
:10005800F00D17087006DF39700697008316031332
:100068001E08F00007300310F00CFF3E031D372870
:100078007008F100F10E8312031317087106EF39A7
:10008800710697006B281E08F0000310700C7C3E68
:100098009B001E080139F000F00EF00D1D087006D7
:1000A800DF3970069D00831603131E08F000073021
:1000B8000310F00CFF3E031D5C287008F100F10EE0
:1000C800831203131D087106EF3971069D000C1386
:1000D80073088A00720E8300FE0E7E0E09008316D6
:1000E800031708148814890183160313051485144B
:1000F8000F168F160F170F14C330831203139F05A3
:100108004230F400F40B86280000831203131F13F7
:100118009F171F14831603139F139F121F1207158F
:100128008714FA3092003F308312031397050F307B
:100138009D041708F0390C3897000F309500CF3020
:1001480097050F309B001D129D128C1012109214EF
:1001580012158C1CB028B128AD288C1083160313F7
:10016800071187100C17831203130C138B170B1727
:10017800870108000A128A1173200A128A11831251
:1001880003139F18C828C928C3281F0CF500750C2D
:100198000F39013A031DD128D228D528C3309F052D
:1001A800D9281F08C33904389F004230F500F50BE1
:1001B800DB280000831203139F14C3280A128A1134
:0201C8000C2801
:04400E00D438FF3F64
:00000001FF
